:100B16003738392F343536583132332D4F303D2B57
:100B2600456E7465722050617373776F72644C6F93
:100B3600636B204F70656E536F727279204E6F4DE6
:0E0B46006F726520547269657335353535352B
:10080000E4F52878297C00FD7BFF7A0B7926FE7FB2
:100810000E120A4378377C007D007BFF7A0B793417
:100820007E007F09120A4378407C007D007BFF7ABE
:100830000B793D7E007F08120A4378487C007D00DA
:100840007BFF7A0B79457E007F0A120A4378527C3F
:10085000007D007BFF7A0B794F7E007F05120A43F3
:10086000C294C295C296C29775A0FF7F38120BA39F
:100870007F0E120BA37F80120BA37F06120BA3E443
:10088000F522E522C39404400302091A7F01120BEA
:10089000A3E4F5217429120B7C0521E521C3940EF4
:1008A00040F27FC0120BA3E4F521120A69742325DC
:1008B00021F8A6077F2A120B810521E521C39405A3
:1008C00040E8E523B552020528E524B55302052882
:1008D000E525B554020528E526B555020528E52786
:1008E000B556020528E528D3940440297F01120B50
:1008F000A3E4F5217437120B7C0521E521C394098B
:1009000040F2D294C2957F887E13120B5CC294E4AD
:10091000F52802088C0522020882C2927F01120B80
:10092000A3E4F5217440120B7C0521E521C3940852
:1009300040F27FC0120BA3E4F5217448120B7C0532
:1009400021E521C3940A40F27FF47E01120B5C3052
:10095000A106D296C29780F7E4F52820A1147F4023
:100960007E1F120B5C20A1E7C296C297E4F522021B
:02097000088CF1
:010972002262
:080B5400C2A5D2A67F017E00BC
:100B5C00E4FDFCC3ED9FEC9E5015E4FBFA0BBB00CF
:0F0B6C00010AEB647F4A70F50DBD00010C80E4B7
:010B7B002257
:100B9000D2B7C2A4D2A530B709C2A6120B58D2A6AA
:030BA00080F422BC
:0F0BA300A907120B9089B0C2A4120B54C2A6224C
:050B7C002521F8E6FF51
:0F0B8100A907120B9089B0D2A4120B54C2A6225E
:100A6900E4F590AFA053070FBF0FF5120B58AFA0D5
:100A790053070FEF640F60F37F01120B5CAFA053B4
:100A8900070FEF640F60E47590FEAFA053070FEFF7
:100A9900640F6004E4F980317590FDAFA053070F2E
:100AA900EF640F6004790180207590FBAFA05307B4
:100AB9000FEF640F60047902800F7590F7AFA053B0
:100AC900070FEF640F60027903BF0E0EE925E025D9
:100AD900E02416F582E4340B802DBF0D0EE925E0E4
:100AE90025E02417F582E4340B801CE9BF0B0D25A2
:100AF900E025E02418F582E4340B800B25E025E09D
:0C0B09002419F582E4340BF583E493FF1B
:010B150022BD
:03000000020BB23E
:0C0BB200787FE4F6D8FD7581560208003B
:10097300E709F608DFFA8046E709F208DFFA803E66
:1009830088828C83E709F0A3DFFA8032E309F60853
:10099300DFFA8078E309F208DFFA807088828C83BB
:1009A300E309F0A3DFFA806489828A83E0A3F6086F
:1009B300DFFA805889828A83E0A3F208DFFA804C49
:1009C30080D280FA80C680D4806980F28033801020
:1009D30080A680EA809A80A880DA80E280CA803389
:1009E30089828A83ECFAE493A3C8C582C8CCC58301
:1009F300CCF0A3C8C582C8CCC583CCDFE9DEE780D1
:100A03000D89828A83E493A3F608DFF9ECFAA9F04F
:100A1300EDFB2289828A83ECFAE0A3C8C582C8CCA5
:100A2300C583CCF0A3C8C582C8CCC583CCDFEADEBE
:100A3300E880DB89828A83E493A3F208DFF980CC20
:100A430088F0EF60010E4E60C388F0ED2402B40419
:100A53000050B9F582EB2402B4040050AF232345C0
:060A630082239009C37319
:00000001FF
